{
  "_format": "hh-sol-artifact-1",
  "contractName": "Voting",
  "sourceName": "contracts/Voting.sol",
  "abi": [
    {
      "inputs": [
        {
          "internalType": "string[]",
          "name": "candidateNames",
          "type": "string[]"
        },
        {
          "internalType": "uint256",
          "name": "_votingDeadline",
          "type": "uint256"
        }
      ],
      "stateMutability": "nonpayable",
      "type": "constructor"
    },
    {
      "anonymous": false,
      "inputs": [
        {
          "indexed": true,
          "internalType": "address",
          "name": "voter",
          "type": "address"
        },
        {
          "indexed": true,
          "internalType": "uint256",
          "name": "candidateIndex",
          "type": "uint256"
        }
      ],
      "name": "Voted",
      "type": "event"
    },
    {
      "anonymous": false,
      "inputs": [],
      "name": "VotingEnded",
      "type": "event"
    },
    {
      "inputs": [
        {
          "internalType": "string",
          "name": "name",
          "type": "string"
        }
      ],
      "name": "addCandidate",
      "outputs": [],
      "stateMutability": "nonpayable",
      "type": "function"
    },
    {
      "inputs": [],
      "name": "admin",
      "outputs": [
        {
          "internalType": "address",
          "name": "",
          "type": "address"
        }
      ],
      "stateMutability": "view",
      "type": "function"
    },
    {
      "inputs": [
        {
          "internalType": "uint256",
          "name": "",
          "type": "uint256"
        }
      ],
      "name": "candidates",
      "outputs": [
        {
          "internalType": "string",
          "name": "name",
          "type": "string"
        },
        {
          "internalType": "uint256",
          "name": "voteCount",
          "type": "uint256"
        }
      ],
      "stateMutability": "view",
      "type": "function"
    },
    {
      "inputs": [],
      "name": "endVoting",
      "outputs": [],
      "stateMutability": "nonpayable",
      "type": "function"
    },
    {
      "inputs": [],
      "name": "getCandidates",
      "outputs": [
        {
          "components": [
            {
              "internalType": "string",
              "name": "name",
              "type": "string"
            },
            {
              "internalType": "uint256",
              "name": "voteCount",
              "type": "uint256"
            }
          ],
          "internalType": "struct Voting.Candidate[]",
          "name": "",
          "type": "tuple[]"
        }
      ],
      "stateMutability": "view",
      "type": "function"
    },
    {
      "inputs": [],
      "name": "getResults",
      "outputs": [
        {
          "internalType": "uint256[]",
          "name": "",
          "type": "uint256[]"
        }
      ],
      "stateMutability": "view",
      "type": "function"
    },
    {
      "inputs": [],
      "name": "hasDeadline",
      "outputs": [
        {
          "internalType": "bool",
          "name": "",
          "type": "bool"
        }
      ],
      "stateMutability": "view",
      "type": "function"
    },
    {
      "inputs": [
        {
          "internalType": "address",
          "name": "",
          "type": "address"
        }
      ],
      "name": "hasVoted",
      "outputs": [
        {
          "internalType": "bool",
          "name": "",
          "type": "bool"
        }
      ],
      "stateMutability": "view",
      "type": "function"
    },
    {
      "inputs": [
        {
          "internalType": "uint256",
          "name": "candidateIndex",
          "type": "uint256"
        }
      ],
      "name": "vote",
      "outputs": [],
      "stateMutability": "nonpayable",
      "type": "function"
    },
    {
      "inputs": [],
      "name": "votingDeadline",
      "outputs": [
        {
          "internalType": "uint256",
          "name": "",
          "type": "uint256"
        }
      ],
      "stateMutability": "view",
      "type": "function"
    }
  ],
  "bytecode": "0x608060405234801561001057600080fd5b50604051611d0f380380611d0f833981810160405281019061003291906103f8565b336000806101000a81548173ffffffffffffffffffffffffffffffffffffffff021916908373ffffffffffffffffffffffffffffffffffffffff16021790555060005b8251811015610108576004604051806040016040528085848151811061009e5761009d610454565b5b602002602001015181526020016000815250908060018154018082558091505060019003906000526020600020906002020160009091909190915060008201518160000190816100ee919061069a565b506020820151816001015550508080600101915050610075565b50600081111561014457804261011e919061079b565b6001819055506001600260006101000a81548160ff021916908315150217905550610160565b6000600260006101000a81548160ff0219169083151502179055505b50506107cf565b6000604051905090565b600080fd5b600080fd5b600080fd5b6000601f19601f8301169050919050565b7f4e487b7100000000000000000000000000000000000000000000000000000000600052604160045260246000fd5b6101c982610180565b810181811067ffffffffffffffff821117156101e8576101e7610191565b5b80604052505050565b60006101fb610167565b905061020782826101c0565b919050565b600067ffffffffffffffff82111561022757610226610191565b5b602082029050602081019050919050565b600080fd5b600080fd5b600067ffffffffffffffff82111561025d5761025c610191565b5b61026682610180565b9050602081019050919050565b60005b83811015610291578082015181840152602081019050610276565b60008484015250505050565b60006102b06102ab84610242565b6101f1565b9050828152602081018484840111156102cc576102cb61023d565b5b6102d7848285610273565b509392505050565b600082601f8301126102f4576102f361017b565b5b815161030484826020860161029d565b91505092915050565b600061032061031b8461020c565b6101f1565b9050808382526020820190506020840283018581111561034357610342610238565b5b835b8181101561038a57805167ffffffffffffffff8111156103685761036761017b565b5b80860161037589826102df565b85526020850194505050602081019050610345565b5050509392505050565b600082601f8301126103a9576103a861017b565b5b81516103b984826020860161030d565b91505092915050565b6000819050919050565b6103d5816103c2565b81146103e057600080fd5b50565b6000815190506103f2816103cc565b92915050565b6000806040838503121561040f5761040e610171565b5b600083015167ffffffffffffffff81111561042d5761042c610176565b5b61043985828601610394565b925050602061044a858286016103e3565b9150509250929050565b7f4e487b7100000000000000000000000000000000000000000000000000000000600052603260045260246000fd5b600081519050919050565b7f4e487b7100000000000000000000000000000000000000000000000000000000600052602260045260246000fd5b600060028204905060018216806104d557607f821691505b6020821081036104e8576104e761048e565b5b50919050565b60008190508160005260206000209050919050565b60006020601f8301049050919050565b600082821b905092915050565b6000600883026105507fffffffffffffffffffffffffffffffffffffffffffffffffffffffffffffffff82610513565b61055a8683610513565b95508019841693508086168417925050509392505050565b6000819050919050565b600061059761059261058d846103c2565b610572565b6103c2565b9050919050565b6000819050919050565b6105b18361057c565b6105c56105bd8261059e565b848454610520565b825550505050565b600090565b6105da6105cd565b6105e58184846105a8565b505050565b5b81811015610609576105fe6000826105d2565b6001810190506105eb565b5050565b601f82111561064e5761061f816104ee565b61062884610503565b81016020851015610637578190505b61064b61064385610503565b8301826105ea565b50505b505050565b600082821c905092915050565b600061067160001984600802610653565b1980831691505092915050565b600061068a8383610660565b9150826002028217905092915050565b6106a382610483565b67ffffffffffffffff8111156106bc576106bb610191565b5b6106c682546104bd565b6106d182828561060d565b600060209050601f83116001811461070457600084156106f2578287015190505b6106fc858261067e565b865550610764565b601f198416610712866104ee565b60005b8281101561073a57848901518255600182019150602085019450602081019050610715565b868310156107575784890151610753601f891682610660565b8355505b6001600288020188555050505b505050505050565b7f4e487b7100000000000000000000000000000000000000000000000000000000600052601160045260246000fd5b60006107a6826103c2565b91506107b1836103c2565b92508282019050808211156107c9576107c861076c565b5b92915050565b611531806107de6000396000f3fe608060405234801561001057600080fd5b506004361061009e5760003560e01c80633477ee2e116100665780633477ee2e14610149578063462e91ec1461017a5780634717f97c14610196578063c3403ddf146101b4578063f851a440146101be5761009e565b80630121b93f146100a3578063036ee850146100bf57806306a49fce146100dd57806309eef43e146100fb578063331453001461012b575b600080fd5b6100bd60048036038101906100b89190610924565b6101dc565b005b6100c76103e6565b6040516100d49190610960565b60405180910390f35b6100e56103ec565b6040516100f29190610b19565b60405180910390f35b61011560048036038101906101109190610b99565b6104e7565b6040516101229190610be1565b60405180910390f35b610133610507565b6040516101409190610be1565b60405180910390f35b610163600480360381019061015e9190610924565b61051a565b604051610171929190610c46565b60405180910390f35b610194600480360381019061018f9190610dab565b6105d6565b005b61019e6106ca565b6040516101ab9190610ea3565b60405180910390f35b6101bc610788565b005b6101c66108b6565b6040516101d39190610ed4565b60405180910390f35b600260009054906101000a900460ff1615806101f9575060015442105b610238576040517f08c379a000000000000000000000000000000000000000000000000000000000815260040161022f90610f3b565b60405180910390fd5b600360003373ffffffffffffffffffffffffffffffffffffffff1673ffffffffffffffffffffffffffffffffffffffff16815260200190815260200160002060009054906101000a900460ff16156102c5576040517f08c379a00000000000000000000000000000000000000000000000000000000081526004016102bc90610fa7565b60405180910390fd5b600480549050811061030c576040517f08c379a000000000000000000000000000000000000000000000000000000000815260040161030390611013565b60405180910390fd5b6001600360003373ffffffffffffffffffffffffffffffffffffffff1673ffffffffffffffffffffffffffffffffffffffff16815260200190815260200160002060006101000a81548160ff0219169083151502179055506004818154811061037857610377611033565b5b9060005260206000209060020201600101600081548092919061039a90611091565b9190505550803373ffffffffffffffffffffffffffffffffffffffff167f4d99b957a2bc29a30ebd96a7be8e68fe50a3c701db28a91436490b7d53870ca460405160405180910390a350565b60015481565b60606004805480602002602001604051908101604052809291908181526020016000905b828210156104de578382906000526020600020906002020160405180604001604052908160008201805461044390611108565b80601f016020809104026020016040519081016040528092919081815260200182805461046f90611108565b80156104bc5780601f10610491576101008083540402835291602001916104bc565b820191906000526020600020905b81548152906001019060200180831161049f57829003601f168201915b5050505050815260200160018201548152505081526020019060010190610410565b50505050905090565b60036020528060005260406000206000915054906101000a900460ff1681565b600260009054906101000a900460ff1681565b6004818154811061052a57600080fd5b906000526020600020906002020160009150905080600001805461054d90611108565b80601f016020809104026020016040519081016040528092919081815260200182805461057990611108565b80156105c65780601f1061059b576101008083540402835291602001916105c6565b820191906000526020600020905b8154815290600101906020018083116105a957829003601f168201915b5050505050908060010154905082565b60008054906101000a900473ffffffffffffffffffffffffffffffffffffffff1673ffffffffffffffffffffffffffffffffffffffff163373ffffffffffffffffffffffffffffffffffffffff1614610664576040517f08c379a000000000000000000000000000000000000000000000000000000000815260040161065b90611185565b60405180910390fd5b600460405180604001604052808381526020016000815250908060018154018082558091505060019003906000526020600020906002020160009091909190915060008201518160000190816106ba9190611351565b5060208201518160010155505050565b6060600060048054905067ffffffffffffffff8111156106ed576106ec610c80565b5b60405190808252806020026020018201604052801561071b5781602001602082028036833780820191505090505b50905060005b600480549050811015610780576004818154811061074257610741611033565b5b90600052602060002090600202016001015482828151811061076757610766611033565b5b6020026020010181815250508080600101915050610721565b508091505090565b60008054906101000a900473ffffffffffffffffffffffffffffffffffffffff1673ffffffffffffffffffffffffffffffffffffffff163373ffffffffffffffffffffffffffffffffffffffff1614610816576040517f08c379a000000000000000000000000000000000000000000000000000000000815260040161080d9061146f565b60405180910390fd5b600260009054906101000a900460ff1615610866576040517f08c379a000000000000000000000000000000000000000000000000000000000815260040161085d906114db565b60405180910390fd5b6001600260006101000a81548160ff021916908315150217905550426001819055507f7a19ed057db79e3c2fa0b97a54b43bef4fce74b31bb6c01af514b9a18a7f70ab60405160405180910390a1565b60008054906101000a900473ffffffffffffffffffffffffffffffffffffffff1681565b6000604051905090565b600080fd5b600080fd5b6000819050919050565b610901816108ee565b811461090c57600080fd5b50565b60008135905061091e816108f8565b92915050565b60006020828403121561093a576109396108e4565b5b60006109488482850161090f565b91505092915050565b61095a816108ee565b82525050565b60006020820190506109756000830184610951565b92915050565b600081519050919050565b600082825260208201905092915050565b6000819050602082019050919050565b600081519050919050565b600082825260208201905092915050565b60005b838110156109e15780820151818401526020810190506109c6565b60008484015250505050565b6000601f19601f8301169050919050565b6000610a09826109a7565b610a1381856109b2565b9350610a238185602086016109c3565b610a2c816109ed565b840191505092915050565b610a40816108ee565b82525050565b60006040830160008301518482036000860152610a6382826109fe565b9150506020830151610a786020860182610a37565b508091505092915050565b6000610a8f8383610a46565b905092915050565b6000602082019050919050565b6000610aaf8261097b565b610ab98185610986565b935083602082028501610acb85610997565b8060005b85811015610b075784840389528151610ae88582610a83565b9450610af383610a97565b925060208a01995050600181019050610acf565b50829750879550505050505092915050565b60006020820190508181036000830152610b338184610aa4565b905092915050565b600073ffffffffffffffffffffffffffffffffffffffff82169050919050565b6000610b6682610b3b565b9050919050565b610b7681610b5b565b8114610b8157600080fd5b50565b600081359050610b9381610b6d565b92915050565b600060208284031215610baf57610bae6108e4565b5b6000610bbd84828501610b84565b91505092915050565b60008115159050919050565b610bdb81610bc6565b82525050565b6000602082019050610bf66000830184610bd2565b92915050565b600082825260208201905092915050565b6000610c18826109a7565b610c228185610bfc565b9350610c328185602086016109c3565b610c3b816109ed565b840191505092915050565b60006040820190508181036000830152610c608185610c0d565b9050610c6f6020830184610951565b9392505050565b600080fd5b600080fd5b7f4e487b7100000000000000000000000000000000000000000000000000000000600052604160045260246000fd5b610cb8826109ed565b810181811067ffffffffffffffff82111715610cd757610cd6610c80565b5b80604052505050565b6000610cea6108da565b9050610cf68282610caf565b919050565b600067ffffffffffffffff821115610d1657610d15610c80565b5b610d1f826109ed565b9050602081019050919050565b82818337600083830152505050565b6000610d4e610d4984610cfb565b610ce0565b905082815260208101848484011115610d6a57610d69610c7b565b5b610d75848285610d2c565b509392505050565b600082601f830112610d9257610d91610c76565b5b8135610da2848260208601610d3b565b91505092915050565b600060208284031215610dc157610dc06108e4565b5b600082013567ffffffffffffffff811115610ddf57610dde6108e9565b5b610deb84828501610d7d565b91505092915050565b600081519050919050565b600082825260208201905092915050565b6000819050602082019050919050565b6000610e2c8383610a37565b60208301905092915050565b6000602082019050919050565b6000610e5082610df4565b610e5a8185610dff565b9350610e6583610e10565b8060005b83811015610e96578151610e7d8882610e20565b9750610e8883610e38565b925050600181019050610e69565b5085935050505092915050565b60006020820190508181036000830152610ebd8184610e45565b905092915050565b610ece81610b5b565b82525050565b6000602082019050610ee96000830184610ec5565b92915050565b7f566f74696e672068617320656e64656400000000000000000000000000000000600082015250565b6000610f25601083610bfc565b9150610f3082610eef565b602082019050919050565b60006020820190508181036000830152610f5481610f18565b9050919050565b7f416c726561647920766f74656400000000000000000000000000000000000000600082015250565b6000610f91600d83610bfc565b9150610f9c82610f5b565b602082019050919050565b60006020820190508181036000830152610fc081610f84565b9050919050565b7f496e76616c69642063616e646964617465000000000000000000000000000000600082015250565b6000610ffd601183610bfc565b915061100882610fc7565b602082019050919050565b6000602082019050818103600083015261102c81610ff0565b9050919050565b7f4e487b7100000000000000000000000000000000000000000000000000000000600052603260045260246000fd5b7f4e487b7100000000000000000000000000000000000000000000000000000000600052601160045260246000fd5b600061109c826108ee565b91507fffffffffffffffffffffffffffffffffffffffffffffffffffffffffffffffff82036110ce576110cd611062565b5b600182019050919050565b7f4e487b7100000000000000000000000000000000000000000000000000000000600052602260045260246000fd5b6000600282049050600182168061112057607f821691505b602082108103611133576111326110d9565b5b50919050565b7f4f6e6c792061646d696e2063616e206164642063616e64696461746573000000600082015250565b600061116f601d83610bfc565b915061117a82611139565b602082019050919050565b6000602082019050818103600083015261119e81611162565b9050919050565b60008190508160005260206000209050919050565b60006020601f8301049050919050565b600082821b905092915050565b6000600883026112077fffffffffffffffffffffffffffffffffffffffffffffffffffffffffffffffff826111ca565b61121186836111ca565b95508019841693508086168417925050509392505050565b6000819050919050565b600061124e611249611244846108ee565b611229565b6108ee565b9050919050565b6000819050919050565b61126883611233565b61127c61127482611255565b8484546111d7565b825550505050565b600090565b611291611284565b61129c81848461125f565b505050565b5b818110156112c0576112b5600082611289565b6001810190506112a2565b5050565b601f821115611305576112d6816111a5565b6112df846111ba565b810160208510156112ee578190505b6113026112fa856111ba565b8301826112a1565b50505b505050565b600082821c905092915050565b60006113286000198460080261130a565b1980831691505092915050565b60006113418383611317565b9150826002028217905092915050565b61135a826109a7565b67ffffffffffffffff81111561137357611372610c80565b5b61137d8254611108565b6113888282856112c4565b600060209050601f8311600181146113bb57600084156113a9578287015190505b6113b38582611335565b86555061141b565b601f1984166113c9866111a5565b60005b828110156113f1578489015182556001820191506020850194506020810190506113cc565b8683101561140e578489015161140a601f891682611317565b8355505b6001600288020188555050505b505050505050565b7f4f6e6c792061646d696e2063616e20656e6420766f74696e6700000000000000600082015250565b6000611459601983610bfc565b915061146482611423565b602082019050919050565b600060208201905081810360008301526114888161144c565b9050919050565b7f446561646c696e6520616c726561647920736574000000000000000000000000600082015250565b60006114c5601483610bfc565b91506114d08261148f565b602082019050919050565b600060208201905081810360008301526114f4816114b8565b905091905056fea26469706673582212206d94a58ed4a44ee019637ea6f5615aa28e2f7faeef7c20f6049af3197b393efc64736f6c634300081c0033",
  "linkReferences": {},
  "deployedLinkReferences": {}
}